:020000040800F2
:100000005804002001010008870C00087F0C00083C
:10001000830C00086D010008B10D0008000000000D
:10002000000000000000000000000000B50C000807
:100030007101000800000000890C0008B70C0008DE
:100040001B0100081B0100081B0100081B01000820
:100050001B0100081B0100081B0100081B01000810
:100060001B0100081B0100081B0100081B01000800
:100070001B0100081B0100081B0100081B010008F0
:100080001B0100081B0100081B0100081B010008E0
:100090001B0100081B0100081B0100081B010008D0
:1000A0001B0100081B0100081B0100081B010008C0
:1000B0001B0100081B0100081D0D00081B010008A2
:1000C0001B0100081B0100081B0100081B010008A0
:1000D0001B0100081B0100081B0100081B01000890
:1000E0001B0100081B0100081B010008DFF80CD0F1
:1000F00000F02AF8004800470B0E000858040020C2
:100100000648804706480047FEE7FEE7FEE7FEE7B1
:10011000FEE7FEE7FEE7FEE7FEE7FEE7190D000853
:10012000ED000008D2B201E000F8012B491EFBD21D
:1001300070470022F6E710B513460A4604461946F2
:10014000FFF7F0FF204610BD064C074D06E0E068C3
:1001500040F0010394E8070098471034AC42F6D30E
:10016000FFF7C8FF400E0008600E000800BFFEE762
:10017000704700000148006870470000040000203C
:10018000034800680349097808440149086070473A
:10019000040000200C00002010B50848006840F062
:1001A000100006490860032000F0B4F80F2000F0AA
:1001B00007F800F05FF8002010BD000000200240AA
:1001C0002DE9F04188B004460027B846002600BF5C
:1001D0002348C06940F004002149C8610846C0694D
:1001E00000F00400019000BF00BF02A903A800F0C6
:1001F0006BF9069F1FB900F08FF9054602E000F089
:100200008BF945001748B5FBF0F0A0F1010816483E
:100210001649086040F2E7311448C160C0F8048014
:10022000002101618160816100F0F2FB064696B910
:100230000E4800F021FC06466EB91E2000F01BF8A7
:10024000102C07D2002221461E2000F024F8084876
:10025000046000E00126304608B0BDE8F0810000EF
:100260000010024040420F00000800401000002033
:1002700008000020704701460846002809DB00F00E
:100280001F0301229A4043099B0003F1E023C3F8B6
:10029000002100BF70472DE9F05F80460D461646ED
:1002A000002700F087FD074639462A46334601F00D
:1002B0000700C0F1070ABAF1040F02D94FF0040A8F
:1002C00001E0C0F1070AD14600F1040ABAF1070FB4
:1002D00002D24FF0000A01E0A0F1030AD4464FF029
:1002E000010A0AFA09FAAAF1010A0AEA020A0AFA52
:1002F0000CFA4FF0010B0BFA0CFBABF1010B0BEA04
:10030000030B4AEA0B042146404600F05BFDBDE8C2
:10031000F09F000000BF00F00702064B19684FF67F
:10032000FF031940044B0B4343EA0221014B1960C0
:1003300000BF70470CED00E00000FA0570B5044600
:100340000D460CB9012070BD5A48006800F0070046
:10035000A8420ED25748006820F0070028435549AC
:1003600008600846006800F00700A84201D001209C
:10037000E9E7207800F0020002281DD1207800F083
:100380000400042805D14C48406840F4E0604A4924
:100390004860207800F00800082805D146484068E9
:1003A00040F46050444948604348406820F0F00001
:1003B000A168084340494860207800F0010078B304
:1003C0006068012806D13C48006800F4003090B90C
:1003D0000120B8E76068022806D13748006800F0BD
:1003E000007040B90120AEE73348006800F0020019
:1003F00008B90120A7E73048406820F00300616891
:1004000008432D494860FFF7B5FE064609E0FFF7AF
:10041000B1FE801B41F28831884202D9032092E765
:1004200007E02548406800F00C006168B0EB810FE0
:10043000EDD12048006800F00700A8420ED91D4801
:10044000006820F0070028431A4908600846006841
:1004500000F00700A84201D0012074E7207800F0E6
:100460000400042807D11448406820F4E060E168E3
:10047000084311494860207800F00800082808D196
:100480000D48406820F46050216940EAC1000A49E3
:10049000486000F051F808494968C1F30311074A60
:1004A000515CC8400649086006480068FFF788FEAE
:1004B000002048E70020024000100240160E00080D
:1004C00000000020080000200F2202600D4A526840
:1004D00002F0030242600B4A526802F0F0028260AE
:1004E000084A526802F4E062C260064A526802F4A6
:1004F0006052D2080261044A126802F007020A60E0
:1005000070470000001002400020024001480068CF
:10051000704700000000002000B5FFF7F7FF044916
:100520004968C1F30221034A515CC84000BD000084
:1005300000100240260E000870B5002100220024A1
:1005400000230020134D696801F00C05F5B1042D5E
:1005500002D0082D19D101E00F4819E00F4DC1F369
:100560008346AB5D01F4803555B10A4D6D68C5F326
:1005700040450B4E725D084D5D43B5FBF2F402E061
:10058000084D03FB05F4204602E000BF024800BF0F
:1005900000BF70BD0010024000127A002E0E00084D
:1005A0003E0E000800093D00F8B504460CB90120D4
:1005B000F8BD207800F00100002878D0F8484068A5
:1005C00000F00C0004280CD0F548406800F00C0046
:1005D000082811D1F248406800F48030B0F5803F1F
:1005E0000AD1EF48006800F4003000285FD060684E
:1005F00000285CD10120DBE700BF6068B0F5803FD8
:1006000006D1E748006840F48030E549086028E0FA
:10061000606858B9E248006820F48030E04908601A
:100620000846006820F4802008601AE06068B0F591
:10063000A02F0BD1DA48006840F48020D849086028
:100640000846006840F4803008600AE0D44800683A
:1006500020F48030D24908600846006820F48020E9
:10066000086000BF606888B1FFF784FD054606E0BA
:10067000FFF780FD401B642801D9032098E7C84894
:10068000006800F400300028F2D010E0FFF772FD9F
:10069000054606E0FFF76EFD401B642801D90320E4
:1006A00086E7BF48006800F400300028F2D12078C7
:1006B00000F00200022857D1B948406800F00C0051
:1006C00050B1B748406800F00C00082818D1B44871
:1006D000406800F4803098B9B148006800F002002A
:1006E00020B12069012801D0012061E7AC480068F1
:1006F00020F0F800616940EAC100A949086033E0D0
:100700002069E8B10120A7490860FFF733FD0546DD
:1007100006E0FFF72FFD401B022801D9032047E721
:100720009F48006800F002000028F2D09C48006852
:1007300020F0F800616940EAC1009949086013E0BF
:10074000002098490860FFF715FD054606E0FFF711
:1007500011FD401B022801D9032029E790480068B9
:1007600000F002000028F2D1207800F008000828EC
:100770002DD1A069B8B101208B490860FFF7FAFCC0
:10078000054606E0FFF7F6FC401B022801D90320CE
:100790000EE78348406A00F002000028F2D00120F2
:1007A00000F074FA13E000207F490860FFF7E2FCD4
:1007B000054606E0FFF7DEFC401B022801D90320B6
:1007C000F6E67748406A00F002000028F2D120786F
:1007D00000F00400042873D100277148C06900F0BC
:1007E000805070B900BF6E48C06940F080506C49BD
:1007F000C8610846C06900F08050009000BF00BF8B
:1008000001276A48006800F48070B0B96748006842
:1008100040F4807065490860FFF7ACFC054606E0CF
:10082000FFF7A8FC401B642801D90320C0E65F48FD
:10083000006800F480700028F2D000BFE068012852
:1008400006D15748006A40F001005549086227E088
:10085000E06858B95248006A20F001005049086227
:100860000846006A20F00400086219E0E0680528E4
:100870000BD14B48006A40F0040049490862084621
:10088000006A40F0010008620AE04548006A20F072
:100890000100434908620846006A20F0040008622B
:1008A00000BFE068A0B1FFF765FC054609E0FFF76F
:1008B00061FC401B41F28831884202D9032077E66F
:1008C00022E03748006A00F002000028EFD012E072
:1008D000FFF750FC054608E0FFF74CFC401B41F2D7
:1008E0008831884201D9032062E62D48006A00F071
:1008F00002000028F0D1012F05D12948C06920F05D
:1009000080502749C86100BFE069C8B324484068E7
:1009100000F00C00082860D0E069022848D10020CF
:1009200020490866FFF726FC054606E0FFF722FC93
:10093000401B022801D903203AE61948006800F05C
:1009400000700028F2D1206AB0F5803F07D114482A
:10095000406820F40030A168084311494860D4E998
:10096000080108430E49496821F4741108430C49F1
:10097000486001200B490866FFF7FCFB054607E0CD
:100980003DE0FFF7F7FB401B022801D903200FE6EB
:100990000348006800F000700028F2D02FE000004B
:1009A00000100240000042428004424200700040B9
:1009B000002014490866FFF7DDFB054606E0FFF757
:1009C000D9FB401B022801D90320F1E50E4800683D
:1009D00000F000700028F2D111E0E069012800D198
:1009E000E6E50948466806F48031206A814204D170
:1009F00006F47011606A814201D00120D8E5002020
:100A0000D6E50000000042420010024070477047E7
:100A100010B504460CB9012010BD94F83D0028B96A
:100A2000002084F83C00204600F025F8022084F8DD
:100A30003D00211D206800F079F9012084F846006E
:100A400000BF84F83E0001213F20015540200155A0
:100A50004120015500BF00BF012084F8420043201F
:100A60000155442001554520015500BF012084F85F
:100A70003D000020D0E77047014691F83D00012875
:100A800001D001207047022081F83D000868C0684D
:100A900040F001000B68D860124B086898420BD0F8
:100AA0000868B0F1804F07D00F4B0868984203D018
:100AB0000E4B086898420CD10868806800F0070265
:100AC000062A0CD00868006840F001000B68186026
:100AD00005E00868006840F001000B68186000201D
:100AE000D0E70000002C0140000400400008004056
:100AF000704770B504462068C5682068066906F02E
:100B00000200022819D105F00200022815D1401F69
:100B100021680861012020772068806900F00300C7
:100B200018B12046FFF7E4FF05E0204600F097F8F3
:100B3000204600F095F80020207706F004000428F5
:100B400019D105F00400042815D1C04321680861BB
:100B5000022020772068806900F4407018B1204698
:100B6000FFF7C6FF05E0204600F079F8204600F0C8
:100B700077F80020207706F00800082819D105F042
:100B80000800082815D1C043216808610420207797
:100B90002068C06900F0030018B12046FFF7A8FFE5
:100BA00005E0204600F05BF8204600F059F80020F0
:100BB000207706F01000102819D105F01000102839
:100BC00015D1C04321680861082020772068C069DA
:100BD00000F4407018B12046FFF78AFF05E0204678
:100BE00000F03DF8204600F03BF80020207706F0AA
:100BF000010048B105F0010030B16FF0010021683B
:100C00000861204600F02EF806F08000802809D107
:100C100005F08000802805D1C04321680861204686
:100C2000FFF7F4FE06F04000402809D105F040002F
:100C3000402805D1C04321680861204600F01EF815
:100C400006F02000202809D105F02000202805D139
:100C5000C043216808612046FFF7D9FE70BD704788
:100C60007047000010B5044603492068884201D14E
:100C7000FFF786FA10BD000000080040704700BF73
:100C8000FEE700BFFEE770477047000008B508495F
:100C90000968C9084FF47A72B1FBF2F1414300913F
:100CA00000BF00BF00994A1E00920029F9D108BD7B
:100CB000000000207047704700B58FB014210AA8CB
:100CC000FFF737FA28216846FFF733FA0120009032
:100CD000000401900020029002200790C1030891B7
:100CE0004FF4E01109916846FFF75EFC08B100BFC0
:100CF000FEE70F200A9002200B9000200C900E902F
:100D00004FF480600D9002210AA8FFF717FB08B18D
:100D100000BFFEE70FB000BD7047000010B50248ED
:100D2000FFF7E7FE10BD00001000002010B50268BC
:100D30001C4B984208D0B0F1804F05D01A4B984216
:100D400002D01A4B984203D122F070024B681A432A
:100D5000144B984208D0B0F1804F05D0124B984206
:100D600002D0124B984203D122F44072CB681A434E
:100D700022F080034C6943EA040202608B68C3627C
:100D80000B688362074B984201D10B69036301230F
:100D90004361036903F001031BB1036923F00103FD
:100DA000036110BD002C0140000400400008004019
:100DB00000BFFEE702480068C0F302207047000051
:100DC0000CED00E010B5002804DB0A07130E054AFD
:100DD000135406E00A07140E034A00F00F031B1F0A
:100DE000D45410BD00E400E018ED00E002E008C8B3
:100DF000121F08C1002AFAD170477047002001E095
:100E000001C1121F002AFBD17047FFF7C5F9FFF798
:100E100053FF00BFFEE700000000000000000102D9
:100E2000030406070809000000000102030402038E
:100E30000405060708090A0B0C0D0E0F101001021D
:100E4000600E00080000002010000000EC0D0008FB
:100E5000700E00081000002048040000FC0D00087F
:100E600000127A00000000001000000001000000E5
:04000005080000ED02
:00000001FF
