:020000040800F2
:10000000B806002089010008670B0008270B0008CC
:10001000650B00088F020008550C00080000000066
:100020000000000000000000000000006B0B000852
:100030009102000800000000690B00086D0B000829
:10004000A3010008A3010008A3010008A301000800
:10005000A3010008A3010008A3010008A3010008F0
:10006000A3010008A3010008A3010008A3010008E0
:10007000A3010008A3010008A3010008A3010008D0
:10008000A3010008A3010008A3010008A3010008C0
:10009000A3010008A3010008A3010008A3010008B0
:1000A000A3010008A3010008A3010008A3010008A0
:1000B000A3010008A3010008D10B0008A301000858
:1000C000A3010008A3010008A3010008A301000880
:1000D000A3010008A3010008A3010008A301000870
:1000E000A3010008A3010008A301000800F002F822
:1000F00000F03AF80AA090E8000C82448344AAF188
:100100000107DA4501D100F02FF8AFF2090EBAE885
:100110000F0013F0010F18BFFB1A43F0010318473B
:10012000900B0000B00B0000103A24BF78C878C1D3
:10013000FAD8520724BF30C830C144BF04680C60ED
:10014000704700000023002400250026103A28BF35
:1001500078C1FBD8520728BF30C148BF0B60704739
:100160001FB51FBD10B510BD00F058F81146FFF7C0
:10017000F7FF00F080FD00F076F803B4FFF7F2FF20
:1001800003BC00F07DF8000009488047094800479B
:10019000FEE7FEE7FEE7FEE7FEE7FEE7FEE7FEE737
:1001A000FEE7FEE704480549054A064B7047000094
:1001B000CD0B0008ED000008B8000020B8060020B4
:1001C000B8020020B80200204FF0000200B513462C
:1001D00094469646203922BFA0E80C50A0E80C5067
:1001E000B1F12001BFF4F7AF090728BFA0E80C5018
:1001F00048BF0CC05DF804EB890028BF40F8042B11
:1002000008BF704748BF20F8022B11F0804F18BF7D
:1002100000F8012B7047704770477047754600F033
:100220002BF8AE4605006946534620F00700854688
:1002300018B020B5FFF7B6FFBDE820404FF000062C
:100240004FF000074FF000084FF0000B21F00701BE
:10025000AC46ACE8C009ACE8C009ACE8C009ACE801
:10026000C0098D46704710B50446AFF300802046A4
:10027000BDE81040FFF781BF0048704758000020DC
:1002800001491820ABBEFEE7260002007047FEE7DA
:10029000704700000148806870470000000000209F
:1002A0000248816802781144816070470000002094
:1002B000074810B5016841F010010160032000F00B
:1002C000A1F80F2000F006F800F050F8002010BD53
:1002D0000020024030B505461F4887B0C16941F093
:1002E0000401C161C06906A900F00400009001A8E2
:1002F00000F030F90498B0B100F04CF94000174913
:10030000174AB0FBF1F11748491E0260416040F204
:10031000E7320021C0E903218160816100F002FB26
:10032000040003D015E000F035F9E8E70D4800F0CF
:1003300027FB04000DD11E2000F036F8102D07D247
:10034000002229461E2000F03DF80748056000E025
:10035000012407B0204630BD0010024040420F008B
:100360000008004010000020040000200C4808B5E0
:10037000816941F001018161816901F00101009110
:10038000C16941F08051C161C06900F080500090A6
:100390000448416821F0E06141F00071416008BD0E
:1003A0000010024000000140002809DB00F01F029D
:1003B000012191404009800000F1E020C0F80011C7
:1003C00070470000F0B40E4B1B680C46C3F30223C9
:1003D000C3F10705042D00D90425191D072901D2F1
:1003E000002300E0DB1E012606FA05F1491E21402C
:1003F00099409E40761E16403143F0BC00F02BBC65
:100400000CED00E0064900F0070208684FF6FF0314
:10041000184040EA0220034A104308607047000079
:100420000CED00E00000FA052DE9F0470F4605004D
:1004300061D0434E306800F00700B84209D23068FE
:1004400020F0070038433060306800F00700B84201
:1004500051D128683B4C810712D5400703D560680D
:1004600040F4E06060602878000703D5606840F4DD
:10047000605060606068A96820F0F0000843606028
:100480002878C00728D06868012810D02168022881
:1004900010D0890700292EDA616821F00301014399
:1004A0006160FFF7F7FE804641F288390DE0216870
:1004B0008903EFE78901EDE7FFF7ECFEA0EB080108
:1004C000494502D90320BDE8F0876068696800F0FB
:1004D0000C00B0EB810FEFD1306800F00700B8429C
:1004E0000BD9306820F0070038433060306800F0E6
:1004F0000700B84201D00120E5E72878400705D57C
:100500006068E96820F4E0600843606028780007CC
:1005100006D56068296920F4605040EAC100606037
:1005200000F048F86168084AC1F30311515CC84003
:100530000649086006480068FFF7CCFE0020C2E7C5
:100540000020024000100240960C00080C00002021
:10055000040000200F2202600C4A536803F00303DA
:100560004360536803F0F0038360536803F4E0636F
:10057000C36052684FF4E06303EAD20202610448A8
:10058000006800F00700086070470000001002409B
:10059000002002400448054900684968044AC1F344
:1005A0000221515CC84070470C000020001002403E
:1005B000A60C00080E4A51680E4801F00C03042BEB
:1005C00011D0082B0FD10C48C1F38343C903C05C81
:1005D0000AD55168084AC1F34041921E515C054A50
:1005E0005043B0FBF1F070470449484370470000A6
:1005F0000010024000127A00860C000800093D003D
:100600002DE9F84F040070D02078C04DC00749D0C4
:100610006868C0F38100012807D06868C0F38100D2
:10062000022809D16868C00306D52868800339D537
:1006300060680028E7D035E06068B0F5803F0BD0F7
:1006400010B1B0F5A02F11D0286820F480302860B8
:10065000286820F4802002E0286840F48030286078
:10066000606890B1FFF716FE06460AE0286840F47D
:1006700080202860F0E700BFFFF70CFE801B642895
:1006800073D828688003F7D50CE0FFF703FE064611
:1006900005E000BFFFF7FEFD801B6428F0D8286846
:1006A0008003F7D420789A4E80074FF001094FF06D
:1006B000000839D5686810F00C0F07D06868C0F3DF
:1006C0008100022809D16868C00306D42868800721
:1006D00014D52069012808D110E02069B0B1C6F80E
:1006E0000090FFF7D7FD074605E00AE1FFF7D2FDCE
:1006F000C01B0228C4D828688007F7D5286861691C
:1007000020F0F80040EAC10028600DE0C6F8008043
:10071000FFF7C0FD074604E0FFF7BCFDC01B022841
:1007200023D828688007F7D4207800072CD579488B
:10073000A169D9B1C0F80090FFF7ACFD074604E00D
:10074000FFF7A8FDC01B02280FD8686A8007F7D5FD
:1007500071484FF4FA510068B0FBF1F0009000BF0F
:100760000098411E0091FAD20EE080E0C0F80080AF
:10077000FFF790FD074604E0FFF78CFDC01B022841
:1007800075D8686A8007F7D42078400760D5E86993
:100790000027C00008D4E86940F08050E861E869AB
:1007A000012700F0805000905C480168C90513D40F
:1007B0000168834641F480710160FFF76BFD82465A
:1007C00006E000BFFFF766FDA0EB0A0064284ED8E4
:1007D000DBF80000C005F5D5E06801280AD008B1B3
:1007E000052813D0286A20F001002862286A20F02A
:1007F000040002E0286A40F001002862E06841F24B
:10080000883B98B1FFF746FD82460BE0286A40F02E
:1008100004002862EEE700BFFFF73CFDA0EB0A01F1
:1008200059455AD8286A8007F6D50CE0FFF732FD03
:10083000824605E0FFF72EFDA0EB0A0159454CD892
:10084000286A8007F6D41FB1E86920F08050E8617B
:10085000E06988B36968C1F38101022944D00228A4
:10086000C6F8608004D0FFF715FD044638E034E098
:10087000FFF710FD074604E0FFF70CFDC01B022840
:100880002BD828688001F7D4206AB0F5803F05D1C5
:100890006868A16820F4003008436860D4E9080162
:1008A0000843696821F4741108436860C6F86090D1
:1008B000FFF7F0FC044606E025E000BFFFF7EAFC86
:1008C000001B022809D828688001F7D51BE000BF6B
:1008D000FFF7E0FC001B022802D90320BDE8F88FD7
:1008E00028688001F4D40EE00128F7D06868226AF5
:1008F00000F48031914204D1616A00F470108842A2
:1009000001D00120EAE70020E8E7000000100240E3
:1009100000004242800442420C000020007000406F
:100920007047704710B5040003D094F83D0010B133
:1009300007E0012010BD002084F83C00204600F0B4
:100940001EF8022084F83D00211D206800F046F9C1
:10095000012084F8460084F83E0084F83F0084F8C3
:10096000400084F8410084F8420084F8430084F891
:10097000440084F8450084F83D00002010BD704715
:1009800090F83D10012901D001207047022180F824
:100990003D100168CA6842F00102CA6000680B4954
:1009A000884208D0B0F1804F05D00949884202D072
:1009B0000849884204D1816801F00701062903D063
:1009C000016841F00101016000207047002C0140E6
:1009D000000400400008004070472DE9F041044643
:1009E0000068C66805694FF00007A90713D5B1076D
:1009F00011D5F91E016101202077206880698007E8
:100A0000204602D0FFF7E8FF04E000F07EF8204621
:100A100000F07CF82777680716D5700714D5216891
:100A20006FF004000861022020772068806910F4CC
:100A3000407F204602D0FFF7CFFF04E000F065F8CA
:100A4000204600F063F82777280715D5300713D51F
:100A500021686FF008000861042020772068C069D1
:100A60008007204602D0FFF7B7FF04E000F04DF802
:100A7000204600F04BF82777E80616D5F00614D587
:100A800021686FF010000861082020772068C06995
:100A900010F4407F204602D0FFF79EFF04E000F0F4
:100AA00034F8204600F032F82777E80708D0F0073E
:100AB00006D021686FF001000861204600F028F898
:100AC000280608D5300606D521686FF08000086139
:100AD0002046FFF725FF680608D5700606D5216871
:100AE0006FF040000861204600F01CF8A8060AD507
:100AF000B00608D521686FF0200008612046BDE8E7
:100B0000F041FFF70EBFBDE8F0817047704700006D
:100B100000680349884201D1FFF7C2BB704700005B
:100B2000000800407047FEE70D4808B5816941F0B4
:100B300010018161816901F010010091816941F02A
:100B400020018161816901F020010091816941F0FA
:100B500004018161806900F00400009008BD00007C
:100B600000100240FEE7FEE770477047704730B55F
:100B70008FB028216846FFF727FB14210AA8FFF74A
:100B800023FB01210804CDE9001000240294022572
:100B90000491CDE907504FF4E01009906846FFF743
:100BA0002FFD08B172B6FEE70F20CDE90A054FF41C
:100BB0008060CDE90C4002210AA80E94FFF734FCB6
:100BC000002801D072B6FEE70FB030BD70470000BC
:100BD0000148FFF702BF000010000020F0B50268D6
:100BE000194B1A4C1A4D4FF08047984205D0B84225
:100BF00003D0A04201D0A84203D122F070064A6877
:100C00003243984205D0B84203D0A04201D0A84256
:100C100003D122F44074CA6822434C6922F0800256
:100C2000224302608A68C2620A688262984201D1E5
:100C300009690163012141610169C90703D00169A3
:100C400021F001010161F0BD002C014000040040D1
:100C500000080040FEE70907090E002804DB00F148
:100C6000E02080F80014704700F00F0000F1E02051
:100C700080F8141D7047FFF71BFBFFF778FFFFF7A5
:100C800053FFFEE7010202030405060708090A0BE9
:100C90000C0D0E0F101000000000000000000102FB
:100CA0000304060708090000000001020304000015
:100CB000D00C0008000000201000000028010008EF
:100CC000E00C000810000020A80600004401000805
:100CD00001000000100000000000000000127A0077
:04000005080000ED02
:00000001FF
