:020000040800F2
:10000000001E002099010008D5130008FB1200080B
:10001000D1130008550200086D1700080000000009
:1000200000000000000000000000000001010008C6
:100030005902000800000000450100086D14000886
:10004000B3010008B3010008B3010008B3010008C0
:10005000B3010008B3010008B3010008B3010008B0
:10006000B3010008B3010008B3010008B3010008A0
:10007000B3010008B3010008B3010008B301000890
:10008000B3010008B3010008B3010008B301000880
:10009000B3010008B3010008B3010008B301000870
:1000A000B3010008B3010008B3010008B301000860
:1000B000B3010008B3010008E5140008B30100080B
:1000C000B3010008B3010008B3010008B301000840
:1000D000B3010008B3010008B3010008B301000830
:1000E000B3010008B3010008B3010008DFF80CD029
:1000F00000F09EF8004800475D190008001E00202F
:10010000224B19680868B0E8F00F80F30988BFF344
:100110006F8F4FF0000080F311884EF00D0E704786
:100120000000000006480068006880F3088862B696
:1001300061B6BFF34F8FBFF36F8F00DF00BF00BF0B
:1001400008ED00E0EFF30980BFF36F8F0F4B1A68E3
:1001500020E9F00F106008B54FF0500080F31188CF
:10016000BFF34F8FBFF36F8F02F0ECFC4FF0000036
:1001700080F31188BDE8084019680868B0E8F00FFE
:1001800080F30988BFF36F8F704700BF1000002015
:10019000EFF3058070470000064880470648004797
:1001A000FEE7FEE7FEE7FEE7FEE7FEE7FEE7FEE727
:1001B000FEE7FEE7E3140008ED00000840EA010353
:1001C0009B0703D009E008C9121F08C0042AFAD20D
:1001D00003E011F8013B00F8013B521EF9D27047D1
:1001E000D2B201E000F8012B491EFBD27047002279
:1001F000F6E710B513460A4604461946FFF7F0FF26
:10020000204610BD30B50B460146002020220124B7
:1002100009E021FA02F59D4205D303FA02F5491BD4
:1002200004FA02F52844151EA2F10102F1DC30BDEA
:10023000064C074D06E0E06840F0010394E8070033
:1002400098471034AC42F6D3FFF754FF7C390008CE
:100250009C39000800BFFEE77047000010B50B484E
:100260000B4908604FF4E130486000210848816084
:10027000C16001610C21416100218161C16100F017
:100280005EFF08B100F006F810BD00000038014024
:10029000B819002072B600BFFEE7000010B50C4A86
:1002A00000210C4801F0C0FB0B49086008460068BB
:1002B00008B9FFF7EFFF094A0021094801F0B4FB34
:1002C000084908600846006808B9FFF7E3FF10BD59
:1002D0000839000801140008900000202C3900089B
:1002E00041140008940000202DE9F847034600223D
:1002F00094466EE14FF0010808FA02F4D1F800804C
:1003000008EA0400A0427DD1DFF8DCA2D1F8048025
:10031000A8EB0A09D0453AD014DCB8F1030F50D04D
:1003200009DCB8F1000F31D0B8F1010F1CD0B8F1E1
:10033000020F49D120E0B8F1110F18D0B8F1120F17
:1003400042D11EE0B9F5881F25D006DCB9F5803F03
:1003500020D0B9F5801F37D11AE0B9F5001F18D0A9
:10036000B9F5041F30D117E0D1F80CC02DE0D1F859
:100370000C8008F1040C28E0D1F80C8008F1080C7E
:1003800023E0D1F80C8008F10C0C1EE000BF00BF88
:1003900000BF00BF00BF00BFD1F80880B8F1000F58
:1003A00002D14FF0040C0BE0D1F80880B8F1010F36
:1003B00003D14FF0080C1C6102E04FF0080C5C61A7
:1003C00003E04FF0000C00E000BF00BFFF2801D8A1
:1003D000984601E003F104084646FF2802D84FEA98
:1003E000820803E0A2F108084FEA88084746D6F8D9
:1003F00000804FF00F0909FA07F928EA09080CFAFA
:1004000007F900E088E048EA0908C6F80080D1F85A
:10041000048008F08058B8F1805F7DD100BFDFF81C
:10042000CC81D8F8188048F00108DFF8C091C9F8ED
:100430001880C846D8F8188008F00108CDF8008068
:1004400000BF00BF4FEAB9384FEA920958F8295067
:100450004FEA82784FEA18794FF00F0808FA09F846
:1004600025EA0805DFF88881434502D14FF00008EE
:1004700016E0DFF88081434502D14FF001080FE01C
:10048000DFF87481434502D14FF0020808E0DFF83D
:100490006C81434502D14FF0030801E04FF004089E
:1004A0004FEA82794FEA197908FA09F848EA05050E
:1004B000DFF84C814FEA920948F82950D1F80480BE
:1004C00008F48018B8F5801F0AD1DFF83881D8F811
:1004D000008048EA0008DFF82C91C9F8008009E0A4
:1004E000DFF82081D8F8008028EA0008DFF81491AE
:1004F000C9F80080D1F8048008F40018B8F5001F8E
:1005000010D1DFF8008108F10408D8F8008048EA2B
:100510000008DFF8F09000E05AE009F10409C9F89A
:1005200000800DE0DFF8DC8008F10408D8F80080D6
:1005300028EA0008DFF8CC9009F10409C9F8008026
:10054000D1F8048008F40038B8F5003F0ED1DFF888
:10055000B480A8F10408D8F8008048EA0008DFF861
:10056000A490A9F10409C9F800800DE0DFF8948097
:10057000A8F10408D8F8008028EA0008DFF8849081
:10058000A9F10409C9F80080D1F8048008F4803882
:10059000B8F5803F0ED1DFF86C80A8F10808D8F8D4
:1005A000008048EA0008DFF85C90A9F10809C9F862
:1005B00000800DE0DFF84C80A8F10808D8F8008032
:1005C00028EA0008DFF83C90A9F10809C9F8008082
:1005D000521CD1F8008028FA02F8B8F1000F7FF41D
:1005E00089AEBDE8F887000000001110001002403D
:1005F00000080140000C01400010014000140140BF
:1006000008000140080401400AB1016101E00B0447
:100610000361704701480068704700000400002033
:100620000348006803490978084401490860704795
:10063000040000200C00002010B50848006840F0BD
:10064000100006490860032000F0B4F80F2000F005
:1006500007F800F05FF8002010BD00000020024005
:100660002DE9F04188B004460027B846002600BFB7
:100670002348C06940F004002149C8610846C069A8
:1006800000F00400019000BF00BF02A903A800F021
:100690006BF9069F1FB900F08FF9054602E000F0E4
:1006A0008BF945001748B5FBF0F0A0F1010816489A
:1006B0001649086040F2E7311448C160C0F8048070
:1006C000002101618160816100F002FC064696B95B
:1006D0000E4800F031FC06466EB91E2000F01BF8F3
:1006E000102C07D2002221461E2000F024F80848D2
:1006F000046000E00126304608B0BDE8F08100004B
:100700000010024040420F00000800407019002015
:1007100008000020704701460846002809DB00F069
:100720001F0301229A4043099B0003F1E023C3F811
:10073000002100BF70472DE9F05F80460D46164648
:10074000002701F025F8074639462A46334601F0CE
:100750000700C0F1070ABAF1040F02D94FF0040AEA
:1007600001E0C0F1070AD14600F1040ABAF1070F0F
:1007700002D24FF0000A01E0A0F1030AD4464FF084
:10078000010A0AFA09FAAAF1010A0AEA020A0AFAAD
:100790000CFA4FF0010B0BFA0CFBABF1010B0BEA5F
:1007A000030B4AEA0B042146404600F0F9FFBDE87E
:1007B000F09F000000BF00F00702064B19684FF6DB
:1007C000FF031940044B0B4343EA0221014B19601C
:1007D00000BF70470CED00E00000FA0570B504465C
:1007E0000D460CB9012070BD5A48006800F00700A2
:1007F000A8420ED25748006820F007002843554908
:1008000008600846006800F00700A84201D00120F7
:10081000E9E7207800F0020002281DD1207800F0DE
:100820000400042805D14C48406840F4E0604A497F
:100830004860207800F00800082805D14648406844
:1008400040F46050444948604348406820F0F0005C
:10085000A168084340494860207800F0010078B35F
:100860006068012806D13C48006800F4003090B967
:100870000120B8E76068022806D13748006800F018
:10088000007040B90120AEE73348006800F0020074
:1008900008B90120A7E73048406820F003006168EC
:1008A00008432D494860FFF7B5FE064609E0FFF70B
:1008B000B1FE801B41F28831884202D9032092E7C1
:1008C00007E02548406800F00C006168B0EB810F3C
:1008D000EDD12048006800F00700A8420ED91D485D
:1008E000006820F0070028431A490860084600689D
:1008F00000F00700A84201D0012074E7207800F042
:100900000400042807D11448406820F4E060E1683E
:10091000084311494860207800F00800082808D1F1
:100920000D48406820F46050216940EAC1000A493E
:10093000486000F061F808494968C1F30311074AAB
:10094000515CC8400649086006480068FFF788FE09
:10095000002048E70020024000100240DC38000878
:1009600000000020080000200F2202600D4A52689B
:1009700002F0030242600B4A526802F0F002826009
:10098000084A526802F4E062C260064A526802F401
:100990006052D2080261044A126802F007020A603B
:1009A000704700000010024000200240014800682B
:1009B000704700000000002000B5FFF7F7FF044972
:1009C0004968C1F30221034A515CC84000BD0000E0
:1009D00000100240EC38000800B5FFF7E7FF0449BB
:1009E0004968C1F3C221034A515CC84000BD000000
:1009F00000100240EC38000870B5002100220024ED
:100A000000230020134D696801F00C05F5B1042D99
:100A100002D0082D19D101E00F4819E00F4DC1F3A4
:100A20008346AB5D01F4803555B10A4D6D68C5F361
:100A300040450B4E725D084D5D43B5FBF2F402E09C
:100A4000084D03FB05F4204602E000BF024800BF4A
:100A500000BF70BD0010024000127A00F438000898
:100A60000439000800093D00F8B504460CB901201E
:100A7000F8BD207800F00100002878D0F8484068E0
:100A800000F00C0004280CD0F548406800F00C0081
:100A9000082811D1F248406800F48030B0F5803F5A
:100AA0000AD1EF48006800F4003000285FD0606889
:100AB00000285CD10120DBE700BF6068B0F5803F13
:100AC00006D1E748006840F48030E549086028E036
:100AD000606858B9E248006820F48030E049086056
:100AE0000846006820F4802008601AE06068B0F5CD
:100AF000A02F0BD1DA48006840F48020D849086064
:100B00000846006840F4803008600AE0D448006875
:100B100020F48030D24908600846006820F4802024
:100B2000086000BF606888B1FFF774FD054606E005
:100B3000FFF770FD401B642801D9032098E7C848DF
:100B4000006800F400300028F2D010E0FFF762FDEA
:100B5000054606E0FFF75EFD401B642801D903202F
:100B600086E7BF48006800F400300028F2D1207802
:100B700000F00200022857D1B948406800F00C008C
:100B800050B1B748406800F00C00082818D1B448AC
:100B9000406800F4803098B9B148006800F0020065
:100BA00020B12069012801D0012061E7AC4800682C
:100BB00020F0F800616940EAC100A949086033E00B
:100BC0002069E8B10120A7490860FFF723FD054629
:100BD00006E0FFF71FFD401B022801D9032047E76D
:100BE0009F48006800F002000028F2D09C4800688E
:100BF00020F0F800616940EAC1009949086013E0FB
:100C0000002098490860FFF705FD054606E0FFF75C
:100C100001FD401B022801D9032029E79048006804
:100C200000F002000028F2D1207800F00800082827
:100C30002DD1A069B8B101208B490860FFF7EAFC0B
:100C4000054606E0FFF7E6FC401B022801D9032019
:100C50000EE78348406A00F002000028F2D001202D
:100C600000F0BAFB13E000207F490860FFF7D2FCD8
:100C7000054606E0FFF7CEFC401B022801D9032001
:100C8000F6E67748406A00F002000028F2D12078AA
:100C900000F00400042873D100277148C06900F0F7
:100CA000805070B900BF6E48C06940F080506C49F8
:100CB000C8610846C06900F08050009000BF00BFC6
:100CC00001276A48006800F48070B0B9674800687E
:100CD00040F4807065490860FFF79CFC054606E01B
:100CE000FFF798FC401B642801D90320C0E65F4849
:100CF000006800F480700028F2D000BFE06801288E
:100D000006D15748006A40F001005549086227E0C3
:100D1000E06858B95248006A20F001005049086262
:100D20000846006A20F00400086219E0E06805281F
:100D30000BD14B48006A40F004004949086208465C
:100D4000006A40F0010008620AE04548006A20F0AD
:100D50000100434908620846006A20F00400086266
:100D600000BFE068A0B1FFF755FC054609E0FFF7BA
:100D700051FC401B41F28831884202D9032077E6BA
:100D800022E03748006A00F002000028EFD012E0AD
:100D9000FFF740FC054608E0FFF73CFC401B41F232
:100DA0008831884201D9032062E62D48006A00F0AC
:100DB00002000028F0D1012F05D12948C06920F098
:100DC00080502749C86100BFE069C8B32448406823
:100DD00000F00C00082860D0E069022848D100200B
:100DE00020490866FFF716FC054606E0FFF712FCEF
:100DF000401B022801D903203AE61948006800F098
:100E000000700028F2D1206AB0F5803F07D1144865
:100E1000406820F40030A168084311494860D4E9D3
:100E2000080108430E49496821F4741108430C492C
:100E3000486001200B490866FFF7ECFB054607E018
:100E40003DE0FFF7E7FB401B022801D903200FE636
:100E50000348006800F000700028F2D02FE0000086
:100E600000100240000042428004424200700040F4
:100E7000002014490866FFF7CDFB054606E0FFF7A2
:100E8000C9FB401B022801D90320F1E50E48006888
:100E900000F000700028F2D111E0E069012800D1D3
:100EA000E6E50948466806F48031206A814204D1AB
:100EB00006F47011606A814201D00120D8E500205B
:100EC000D6E5000000004242001002407047704723
:100ED00010B504460CB9012010BD94F83D0028B9A6
:100EE000002084F83C00204600F025F8022084F819
:100EF0003D00211D206800F0FDFA012084F8460025
:100F000000BF84F83E0001213F20015540200155DB
:100F10004120015500BF00BF012084F8420043205A
:100F20000155442001554520015500BF012084F89A
:100F30003D000020D0E77047014691F83D000128B0
:100F400001D001207047022081F83D000868C06888
:100F500040F001000B68D860124B086898420BD033
:100F60000868B0F1804F07D00F4B0868984203D053
:100F70000E4B086898420CD10868806800F00702A0
:100F8000062A0CD00868006840F001000B68186061
:100F900005E00868006840F001000B681860002058
:100FA000D0E70000002C0140000400400008004091
:100FB000704770B504462068C5682068066906F069
:100FC0000200022819D105F00200022815D1401FA5
:100FD00021680861012020772068806900F0030003
:100FE00018B12046FFF7E4FF05E0204600F097F82F
:100FF000204600F095F80020207706F00400042831
:1010000019D105F00400042815D1C04321680861F6
:10101000022020772068806900F4407018B12046D3
:10102000FFF7C6FF05E0204600F079F8204600F003
:1010300077F80020207706F00800082819D105F07D
:101040000800082815D1C0432168086104202077D2
:101050002068C06900F0030018B12046FFF7A8FF20
:1010600005E0204600F05BF8204600F059F800202B
:10107000207706F01000102819D105F01000102874
:1010800015D1C04321680861082020772068C06915
:1010900000F4407018B12046FFF78AFF05E02046B3
:1010A00000F03DF8204600F03BF80020207706F0E5
:1010B000010048B105F0010030B16FF00100216876
:1010C0000861204600F02EF806F08000802809D143
:1010D00005F08000802805D1C043216808612046C2
:1010E000FFF7F4FE06F04000402809D105F040006B
:1010F000402805D1C04321680861204600F01EF851
:1011000006F02000202809D105F02000202805D174
:10111000C043216808612046FFF7D9FE70BD7047C3
:101120007047000010B5044603492068884201D189
:10113000FFF776FA10BD000000080040704710B5B8
:1011400004460CB9012010BDA06900B100E000BF49
:1011500094F8410028B9002084F84000204600F0AF
:1011600029F8242084F841002068C06820F4005049
:101170002168C860204600F035FA2068006920F434
:101180009040216808612068406920F02A002168A9
:1011900048612068C06840F400502168C8600020A1
:1011A0006064202084F8410084F8420000206063DD
:1011B00000BFC8E710B586B0044600200290039037
:1011C000049005901A49206888422ED100BF194822
:1011D000806940F48040174988610846806900F4BE
:1011E0008040019000BF00BF00BF0846806940F00A
:1011F000040088610846806900F00400019000BF87
:1012000000BF48150290022003900320059002A918
:101210000948FFF769F84FF48060029000200390BE
:10122000049002A90448FFF75FF806B010BD000063
:101230000038014000100240000801402DE9F84F3D
:1012400004460E46174699464FF0000A94F84100AE
:10125000202850D106B117B90120BDE8F88F002031
:101260006064212084F84100FFF7D4F98246A78406
:10127000E784A068B0F5805F04D1206910B900252B
:10128000B04602E035464FF000081EE0534600220B
:1012900080212046CDF8009000F022FA20B12020D5
:1012A00084F841000320D8E745B9B8F80000C0F33E
:1012B00008002168486008F1020803E028782168E6
:1012C00048606D1CE08C401EE084E08C0028DDD17D
:1012D0005346002240212046CDF8009000F000FA4D
:1012E00020B1202084F841000320B6E7202084F8B4
:1012F00041000020B1E70220AFE700BFFEE7000099
:1013000010B586B000BF1748806940F00400154949
:1013100088610846806900F00400019000BF00BFAA
:10132000002002900390049005900120039000207B
:1013300004900220059000240FE00B4800EBC4004D
:1013400080880290084951F8340002A9FEF7CCFFCA
:10135000204600F00BF8601CC4B2032CEDDB06B095
:1013600010BD0000001002405039000810B50446BE
:10137000032C00DB10BD0A4B03EBC4039B790BB9B4
:10138000012300E000231A46054B03EBC4039988B0
:10139000034B53F83400FFF737F900BFEAE70000CA
:1013A0005039000810B50446032C00DB10BD074B74
:1013B00003EBC4039A79054B03EBC4039988034BF1
:1013C00053F83400FFF720F900BFEFE75039000869
:1013D00000BFFEE77047000008B508490968C90862
:1013E0004FF47A72B1FBF2F14143009100BF00BFAC
:1013F00000994A1E00920029F9D108BD0000002082
:101400001DE00020FFF7CEFF0220FFF7AFFF4FF4F3
:10141000967000F0B3FA0020FFF7A8FF0120FFF755
:10142000C1FF4FF4967000F0A9FA0120FFF79EFF6C
:101430000220FFF7B7FF4FF4967000F09FFAE0E745
:10144000012408E02146641C03A000F091F94FF448
:101450007A7000F093FAF5E748656C6C6F20776F4F
:10146000726C6421202A2025640D0A0010B54FF00B
:10147000E020006901F0DCFF012801D001F026FC2A
:1014800010BD00B58FB014210AA8FEF7B0FE2821C8
:101490006846FEF7ACFE0120009000040190002099
:1014A000029002200790C10308914FF4E0110991C6
:1014B0006846FFF7D9FA08B100BFFEE70F200A908F
:1014C00002200B9000200C900E904FF480600D9045
:1014D00002210AA8FFF782F908B100BFFEE70FB0AA
:1014E00000BD704710B50248FFF763FD10BD000056
:1014F0007019002010B502681C4B984208D0B0F15A
:10150000804F05D01A4B984202D01A4B984203D113
:1015100022F070024B681A43144B984208D0B0F185
:10152000804F05D0124B984202D0124B984203D103
:1015300022F44072CB681A4322F080034C6943EADC
:10154000040202608B68C3620B688362074B984297
:1015500001D10B69036301234361036903F00103B4
:101560001BB1036923F00103036110BD002C01408E
:10157000000400400008004000BF00BF02680C32B9
:1015800052E8002F22F4907102680C3242E80013F6
:10159000002BF3D100BF00BF00BF0268143252E835
:1015A000002F22F001010268143242E80013002BE0
:1015B000F3D100BF016B01290ED100BF00BF02684B
:1015C0000C3252E8002F22F0100102680C3242E87F
:1015D0000013002BF3D100BF202180F8421000211E
:1015E0000163704770B504462168096921F44051D0
:1015F000E2681143226811612269A168114362699E
:1016000041EA02052168C96841F20C62914329430D
:101610002268D1602168496921F44071A2691143AF
:10162000226851612D4A2168914202D1FFF7D4F915
:1016300001E0FFF7C1F900EBC00101EB00116268A6
:101640009200B1FBF2F100EBC00202EB0012636802
:101650009B00B2FBF3F26423B2FBF3F202EBC20392
:1016600003EB0212A1EB8201322202EB0111642290
:10167000B1FBF2F101F0F00100EBC00202EB00124D
:1016800063689B00B2FBF3F26423B2FBF3F201EB5D
:10169000021200EBC00101EB001163689B00B1FB7B
:1016A000F3F100EBC00303EB00136668B600B3FB75
:1016B000F6F36426B3FBF6F303EBC30606EB031362
:1016C000A1EB8301322303EB01116423B1FBF3F19E
:1016D00001F00F0111442268916070BD0038014093
:1016E0002DE9F84304460D4617469846089E31E01A
:1016F000701C70B3FEF78EFFA0EB0800B04200D85C
:1017000016B90320BDE8F8832068C06800F0040023
:10171000F8B1802D1ED0402D1CD020680068C0F389
:10172000C000B0B100BF00200090206800680090A9
:1017300020684068009000BF00BF2046FFF71CFFF4
:101740000820606400BF002084F8400000BF012032
:10175000D8E7FFE7206800682840A84201D10120AF
:1017600000E00020B842C3D00020CBE700BFFEE776
:101770000FB4054B10B503A9044A029800F036F8DF
:1017800010BC5DF814FB000041190008980000200F
:1017900002480068C0F30220704700000CED00E032
:1017A00010B5002804DB0A07130E054A135406E09F
:1017B0000A07140E034A00F00F031B1FD45410BD78
:1017C00000E400E018ED00E0EFF30580704702E070
:1017D00008C8121F08C1002AFAD1704770470020BC
:1017E00001E001C1121F002AFBD170472DE9FF4F14
:1017F00089B09B460446002506E025280BD05A46B2
:101800000B999047641C6D1C20780028F5D10DB011
:101810002846BDE8F08F0027B8460122474900E07E
:10182000074314F8013F203B02FA03F00842F7D1C6
:1018300020782E2819D114F8010F47F004072A2820
:101840000ED06FF02F022078A0F1300109290CD8BA
:1018500008EB880102EB410100EB0108641CF2E790
:101860000A98641C50F8048B0A9020780028CED087
:10187000642808D0692806D075281ED05A460B99CE
:1018800090476D1C58E00A994FF00A0901C90A9166
:10189000002802DA40422D2102E0390504D52B212F
:1018A0008DF82010012103E0F90704D02021F7E78B
:1018B0008A4608AE0DE00021FAE70A994FF00A09BE
:1018C00001C90A91F7E74946FEF79CFC303106F85A
:1018D000011D0028F7D1ADEB060000F120097807C3
:1018E00001D44FF00108C84502DDA8EB090000E073
:1018F00000208046002706E008A85A46C05D0B99E4
:1019000090476D1C7F1C5745F6DB04E030205A469B
:101910000B9990476D1CB8F10001A8F10108F5DCA6
:1019200005E016F8010B5A460B9990476D1CB9F16A
:101930000001A9F10109F4DC641C65E70928010034
:1019400013B50C464FF0FF33012269460248FFF7FA
:1019500075FC00981CBD0000B8190020FEF76CFE55
:10196000FFF78FFDFFF7CCFCFEF778FC00F016F8D0
:10197000FEF794FC00F028F800BFFEE770B50546BE
:10198000FFF722FF10B16FF0050404E0002415B149
:10199000284600F0F7FF204670BD000010B5FFF7A5
:1019A00013FF10B16FF0050409E00648006820B984
:1019B000012004490860002401E04FF0FF34204674
:1019C00010BD00006000002070B5FFF7FDFE10B1F3
:1019D0006FF005041FE011480068012819D100BF0D
:1019E000801F0021002804DB0A07130E0C4A135441
:1019F00006E00A07150E0B4A00F00F031B1FD55413
:101A000000BF00BF02200549086001F037F800243C
:101A100001E04FF0FF34204670BD00006000002060
:101A200000E400E018ED00E02DE9FF47804689461C
:101A3000144600200390FFF7C7FE00284ED1B8F1EE
:101A4000000F4BD0802618258246471E44B32068DD
:101A500008B1D4F800A0A06900B1A5692DB1382D56
:101A600003D8207900F0010018B1002004B0BDE8CF
:101A7000F087606908B160698608A06840B1E068D5
:101A80005C2805D3206918B1606908B1012708E016
:101A9000A06830B9E06820B9206910B9002700E0DB
:101AA0000027012F0CD12169A0684B463246CDE9B1
:101AB000005102905146404601F05CFC03900DE05D
:101AC00067B903A8B2B24B465146CDE90050404633
:101AD00001F01EFC012801D0002003900398C5E707
:101AE0002DE9F04105460E4616480768164800687D
:101AF000001D00F0BFFD681C38B936B112480168FE
:101B0000091D124800F00CFE1AE07C190E4800680E
:101B10004460BC4207D20C480168091D0C480068AB
:101B200000F0E4FD0CE008480168091D0948006860
:101B300000F0DCFD08480068844201D206480460D9
:101B4000BDE8F08124000020100000208C0500205A
:101B500018000020140000204000002010B50446AA
:101B600000F0EAFD24480068401C2349086023482F
:101B7000006840B9214804600846006801280DD17A
:101B800000F0FCF90AE01E48006838B91B480068FC
:101B9000C06AE16A884201D81848046019480068A0
:101BA000401C184908600846006860641649E06AED
:101BB0000968884202D91449E06A0860E16A01EBC9
:101BC0008101124A02EB8100211D00F0A9FD00F005
:101BD000DDFD0B48006868B108480068C06AE16A2A
:101BE000884207D24FF0805009490860BFF34F8FF9
:101BF000BFF36F8F10BD00002000002010000020F8
:101C00002C0000203C00002028000020DC000020E8
:101C100004ED00E008B500F08FFD12480068E8B957
:101C2000114800F053FD114800F050FD0E481049D6
:101C300008600E480F49086000200F4B0F4A102122
:101C400000900A2001F05CF8064908600846006828
:101C500020B10BA10348006800F058FE00F096FD8B
:101C600008BD000054000020A0050020B40500209D
:101C70004C00002050000020C8050020180600205D
:101C8000546D72510000000010B516E000F054FDD4
:101C90000C48C068C468201D00F0ECFC0A480068CD
:101CA000401E0949086009480068401E074908604D
:101CB00000F06CFD204600F05FF804480068002842
:101CC000E4D110BD78050020200000201C00002079
:101CD00070B504460D46206C70B1216CE06801447B
:101CE000E160D4E90210884201D32168E16028460E
:101CF000226CE168FEF762FA70BD2DE9F0410446FE
:101D00000F4615464FF00008A66B206C48B92068B6
:101D100000282CD1A06801F043FC80460020A06080
:101D200025E07DB93946226C6068FEF747FA216CE0
:101D3000606808446060D4E90101884217D32068D4
:101D4000606014E03946226CE068FEF737FA216CD7
:101D5000E068411AE1602168E068884203D2216CA2
:101D6000A068411AE160022D01D106B1761E701CF7
:101D7000A0634046BDE8F08110B5044694F85900D0
:101D800030B9206B00F020FD204600F01DFD1AE068
:101D900094F85900012803D1204600F015FD12E007
:101DA00094F85900022801D1012000E0002050B928
:101DB00000BF502080F31188BFF34F8FBFF36F8FA8
:101DC00000BF00BFFEE710BD0146084A1268126856
:101DD0000AB9012200E000220A600A6822B9034A17
:101DE0001268D268106800E0002070474C000020A4
:101DF00030B54FF44063174800F007042CB1C01D04
:101E000020F00700134C041B1B1B0246124C2260DF
:101E10000024114D6C60D018083820F007000F4CDA
:101E2000206000240D4D2D686C600C4D2D682C60D9
:101E30001146441A4C60094C24680C60084D4C68EB
:101E40002C60084D4C682C604FF00044064D2C600F
:101E500030BD0000700D0020640000206C000020E8
:101E600074000020700000208000002000BFFFF7F9
:101E70000BFF064800680128F9D94FF0805004494B
:101E80000860BFF34F8FBFF36F8FF0E7DC000020D7
:101E900004ED00E02DE9F04106460D461746984650
:101EA000069C0DB9246000E02760E66325640121EB
:101EB000204600F095FF84F84C80BDE8F0812DE9C4
:101EC000F05F82460E4690469B460A9F0C9C4FEA66
:101ED0008801A522206BFEF783F9A8F10100216B90
:101EE00001EB800929F0070909F0070008B9012072
:101EF00000E0002050B900BF502080F31188BFF3EC
:101F00004F8FBFF36F8F00BF00BFFEE786B1002584
:101F100007E0715D04F134004155705D00B902E0E5
:101F20006D1C102DF5D300BF00214320015502E0A8
:101F3000002084F83400382F00D33727E762E764A5
:101F400000202065201D00F0CEFB04F1180000F0F9
:101F5000CAFB2461C7F13800A0616462002060659B
:101F600084F858005A465146484600F071FB2060FC
:101F70000B9808B10B980460BDE8F09F10B50024E1
:101F800007E004EB84010F4A02EB810000F09EFBA6
:101F9000641C382CF5D30C4800F098FB0B4800F07B
:101FA00095FB0B4800F092FB0A4800F08FFB0A48B3
:101FB00000F08CFB0448094908600448084908609F
:101FC00010BD0000DC0000203C0500205005002072
:101FD00064050020780500208C05002014000020F6
:101FE0001800002010B50146164800E0006803689C
:101FF0008B42FBD30246436813448B4204D14368AF
:102000004C682344436001460A464B681344046805
:10201000A34211D10C4C03682468A34208D04B683A
:102020000468646823444B6003681B680B6005E028
:10203000054B1B680B6001E003680B60884200D011
:10204000016010BD640000206C0000202DE9F0410B
:1020500004460D4616461F464FF000086560246191
:10206000B5420CD8F01BA169884202D34FF0010899
:1020700011E0211D0948006800F038FB0BE0BE426A
:1020800004D2BD4202D34FF0010804E0211D0448F0
:10209000006800F02BFB4046BDE8F08150000020B6
:1020A0004C00002070B5054600F046FBA86B08B94F
:1020B000012400E0002400F069FB204670BD70B5EB
:1020C000054600F039FBA86BE96B884201D1012479
:1020D00000E0002400F05AFB204670BDF8B505462C
:1020E0000F461A480068C068C468201D00F0C2FA94
:1020F00094F8280000F00400E8B1A06941192B46CB
:102100003A462046FFF7A2FFD8B1002003462A46F0
:1021100001460090204601F09FFB064656B900BFDD
:10212000502080F31188BFF34F8FBFF36F8F00BF34
:1021300000BFFEE705E094F8280020F0010084F8D5
:1021400028002046216A8847F8BD00004C00002086
:10215000F0B587B0A0E00398002811DA04AE56B9B4
:1021600000BF502080F31188BFF34F8FBFF36F8FF4
:1021700000BF00BFFEE7D6E90020B168904700BF6E
:1021800003980028E6DB059C606908B9012000E09F
:10219000002010B9201D00F06DFA02A800F0DEF852
:1021A000054603980A2875D2DFE800F009050739CB
:1021B000416306083A4200BF00BF00BF00BF94F869
:1021C000280040F0010084F828000498A2698118D2
:1021D00003462A462046FFF739FFF8B12046216A18
:1021E000884794F8280000F00400B8B1002000905F
:1021F0000498A169421800231946204601F02CFBDF
:10220000074657B900BF502080F31188BFF34F8FA6
:10221000BFF36F8F00BF00BFFEE700BF3BE000BF12
:1022200094F8280020F0010084F8280033E000BF73
:1022300094F8280040F0010084F828000498A06178
:10224000A06908B1012000E0002050B900BF502073
:1022500080F31188BFF34F8FBFF36F8F00BF00BFB4
:10226000FEE7A06941192B462A462046FFF7EEFEFD
:1022700011E094F8280000F0020018B9204600F0A0
:10228000A3FA05E094F8280020F0010084F8280063
:1022900001E0FFE700BF00BF002203A90448006877
:1022A00000F03CFF00287FF456AF07B0F0BD0000FF
:1022B00054000020F8B505460C4600F03BFC68468B
:1022C00000F04CF80646009820BB44B9B54206D849
:1022D00001F004FA31462846FFF700FF1CE03CB14C
:1022E0000E480068006808B9012000E0002004469C
:1022F000A91B22460A48006800F01EFB01F0EEF917
:1023000050B94FF0805007490860BFF34F8FBFF3BB
:102310006F8F01E001F0E2F9F8BD000050000020ED
:102320005400002004ED00E00A490968096809B971
:10233000012100E0002121B14FF0FF31064A116078
:1023400006E004490968C968C868034A4168116021
:1023500070470000140000204000002070B50446C3
:1023600001F076F8054607480068854204D200F07F
:102370000BF80120206001E000202060014805608A
:10238000284670BD5C0000202DE9F84334E0254864
:102390000068C068056823480068C068C468201DDC
:1023A00000F068F92046216A884794F8280000F078
:1023B000040008B3A0694619AE4207D966602461DB
:1023C000211D1848006800F091F915E0002003462F
:1023D0002A4601460090204601F03EFA074657B9CA
:1023E00000BF502080F31188BFF34F8FBFF36F8F72
:1023F00000BF00BFFEE700BF0A480068006808B9D8
:10240000012000E000200028C1D00648D0F800805C
:1024100005480068034908600348C0F80080BDE82B
:10242000F88300004C000020500000200E48006897
:10243000401C08B9012000E0002050B900BF502026
:1024400080F31188BFF34F8FBFF36F8F00BF00BFC2
:10245000FEE700BF502080F31188BFF34F8FBFF31A
:102460006F8F00BF00BFFEE78400002008B500BFEB
:102470006846FFF7A9FC044620460099FFF71AFFBB
:10248000FFF766FEF4E770B5044600F055F994F9DD
:10249000455010E0606A08B9012000E0002038B91A
:1024A00004F1240001F0CEF818B100F0A5FA00E024
:1024B00003E0681E45B2002DECDC00BFFF2084F86D
:1024C000450000F063F900F037F994F9445010E04A
:1024D000206908B9012000E0002048B904F110008B
:1024E00001F0B0F808B100F087FA681E45B200E0CC
:1024F00001E0002DECDC00BFFF2084F8440000F078
:1025000045F970BD2DE9F04104464FF0000800F098
:1025100011FB4948006808B9FFF76AFC47480068A2
:102520002040002870D1D4B1083404F00700B0B1C5
:1025300004F00700C0F10800044404F0070008B9E3
:10254000012000E0002050B900BF502080F3118826
:10255000BFF34F8FBFF36F8F00BF00BFFEE7002CAC
:1025600052D03748006884424ED8364E304605680F
:1025700001E02E462D686868A04202D22868002833
:10258000F7D12D48006885423ED0306800F1080838
:10259000286830606868001B102819D92F1907F0C7
:1025A000070008B9012000E0002050B900BF50200A
:1025B00080F31188BFF34F8FBFF36F8F00BF00BF51
:1025C000FEE76868001B78606C603846FFF70AFD1C
:1025D0001B4968680968081A1949086008460068B4
:1025E00019490968884203D21548006816490860ED
:1025F0001249686809680843686000202860134829
:102600000068401C1149086001F068F808F00700F4
:1026100008B9012000E0002050B900BF502080F32D
:102620001188BFF34F8FBFF36F8F00BF00BFFEE76E
:102630004046BDE8F08100006C00002080000020D2
:10264000700000206400002074000020780000204A
:10265000001F4FF080730360001F21F0010303602F
:10266000001F034B036014380260203870470000DD
:102670002D24000801460A69D1E901309860D1E9AA
:10268000010358605068884201D18868506000207A
:1026900008611068401E106010687047034B0360AB
:1026A000034B0B608023136070470000B8060020C6
:1026B00014070020034B0360034B0B604FF480733F
:1026C00013607047140900207009002000F1080110
:1026D00041604FF0FF31816000F10801C16001618C
:1026E00000210160704700210161704710B502466A
:1026F0000B685C1C0CB9106907E002F1080000E0EF
:102700004068446824689C42FAD944684C604C682C
:10271000A160886041600A611468641C146010BD87
:1027200042684A6093688B60936859609160086161
:1027300003685B1C0360704700BF502080F3118862
:10274000BFF34F8FBFF36F8F00BF0E480068401C70
:102750000C49086008460068012812D10A48006840
:10276000C0B208B9012000E0002050B900BF5020DD
:1027700080F31188BFF34F8FBFF36F8F00BF00BF8F
:10278000FEE770478400002004ED00E00D4800687B
:1027900050B900BF502080F31188BFF34F8FBFF3B3
:1027A0006F8F00BF00BFFEE706480068401E054966
:1027B00008600846006820B9002080F3118800BF37
:1027C00000BF70478400002070B506463546002ED5
:1027D00044D0083D2C46224960680968084008B189
:1027E000012000E0002050B900BF502080F3118884
:1027F000BFF34F8FBFF36F8F00BF00BFFEE72068AE
:1028000008B9012000E0002050B900BF502080F33B
:102810001188BFF34F8FBFF36F8F00BF00BFFEE77C
:102820000F49606809680840C0B12068B0B90C4918
:10283000606809688843606000F07CF90949606855
:1028400009680844074908602046FFF7CBFB0648A3
:102850000068401C0449086000F040FF70BD0000A3
:1028600080000020700000207C00002000204FF03D
:10287000E02108618861064800684FF47A71B0FB76
:10288000F1F0401E4FF0E0214861072008617047D9
:102890000000002070B5FDF77BFC0446102C16D319
:1028A00004F1E02090F8F05315480078854201DBF0
:1028B000012000E0002050B900BF502080F31188B3
:1028C000BFF34F8FBFF36F8F00BF00BFFEE70D4810
:1028D000006800F4E0600C490968884201D80120D2
:1028E00000E0002050B900BF502080F31188BFF3F2
:1028F0004F8FBFF36F8F00BF00BFFEE770BD0000BA
:10290000880000200CED00E08C0000200246002032
:102910000BE0084B53F8303033B9064B43F8301016
:1029200003EBC0035A6002E0401C0828F1D300BF4B
:10293000704700009C0000202DE9F04105460E463E
:1029400017462C46FFF7F8FE94F94400401C10B9D6
:10295000002084F8440094F94500401C10B9002080
:1029600084F84500FFF712FFA06B28B93A463146BC
:1029700004F1240000F062F82046FFF784FDBDE872
:10298000F081000070B504460025D4B112480068FB
:1029900008B9012000E0002050B900BF502080F3AA
:1029A0001188BFF34F8FBFF36F8F00BF00BFFEE7EB
:1029B00000F0C0F800212046FFF792F800F08EFEEC
:1029C00005463DB94FF0805004490860BFF34F8F72
:1029D000BFF36F8F70BD00004800002004ED00E0E1
:1029E00003490968016003490968416070470000B4
:1029F00038000020240000200120014908607047B1
:102A00003400002070B504460D4654B900BF502074
:102A100080F31188BFF34F8FBFF36F8F00BF00BFEC
:102A2000FEE70548016818312046FFF75FFE0121E7
:102A30002846FFF755F870BD1000002070B5054618
:102A40000E46144655B900BF502080F31188BFF3DD
:102A50004F8FBFF36F8F00BF00BFFEE706480168CE
:102A600018312846FFF75CFE0CB14FF0FF362146C7
:102A70003046FFF735F870BD1000002010B586B065
:102A800000200590049003AA04A905A8FFF706FEFC
:102A90000022DDE904101346CDE9002102901EA1B9
:102AA0001F48039A00F066FC1E490860084600684B
:102AB00008B1012400E00024012C02D100F090FEB6
:102AC0000446012C15D100BF502080F31188BFF3BC
:102AD0004F8FBFF36F8F00BF4FF0FF301249086078
:102AE00001201249086000201149086000F072F8C6
:102AF00010E0601C08B1012000E0002050B900BFC8
:102B0000502080F31188BFF34F8FBFF36F8F00BF4A
:102B100000BFFEE706B010BD49444C450000000070
:102B20006D1E000844000020400000202C00002002
:102B30002400002002480068401C014908607047DA
:102B4000480000201E48006818B101201D49086097
:102B500034E000201B4908601B4801680CE051B9B3
:102B600000BF502080F31188BFF34F8FBFF36F8FEA
:102B700000BF00BFFEE7491E01EB8100134A52F877
:102B8000200008B9012000E000200028E7D101EB77
:102B900081020E4B03EB820042685268426000F1F2
:102BA00008024368934202D1426852684260426818
:102BB000D268074B1A600448016000BF70470000EC
:102BC000480000203400002028000020DC00002005
:102BD000100000201CB53849084600780190FF20FD
:102BE0000A4610700846007800909DF8000000F03A
:102BF000F0009DF80020904201D1012000E000206B
:102C000050B900BF502080F31188BFF34F8FBFF33E
:102C10006F8F00BF00BFFEE79DF8000000F050007E
:102C2000264A10700720264A106009E024480068F0
:102C3000401E234A10609DF800004006000E0090E0
:102C40009DF8000000F080008028EFD01C4800684C
:102C5000C0F10700042801D1012000E0002050B994
:102C600000BF502080F31188BFF34F8FBFF36F8FE9
:102C700000BF00BFFEE7124800680002104A106063
:102C80001046008800F4E06010600B4A0198107054
:102C90000C48006840F470000A4908600846006863
:102CA00040F070400860FFF7E1FD00200649086031
:102CB000FDF738FA00201CBD00E400E08800002089
:102CC0008C00002020ED00E08400002010B500BF43
:102CD000502080F31188BFF34F8FBFF36F8F00BF79
:102CE00000F0BCFB18B14FF080500449086000BFF1
:102CF000002080F3118800BF10BD000004ED00E04B
:102D00002DE9F84380460E4617461D46DDF8209013
:102D1000B8F1000F01D0012000E0002050B900BF41
:102D2000502080F31188BFF34F8FBFF36F8F00BF28
:102D300000BFFEE70DB1012000E0002050B900BF48
:102D4000502080F31188BFF34F8FBFF36F8F00BF08
:102D500000BFFEE707B10EB1012000E0002050B92E
:102D600000BF502080F31188BFF34F8FBFF36F8FE8
:102D700000BF00BFFEE707B90EB9012000E0002048
:102D800050B900BF502080F31188BFF34F8FBFF3BD
:102D90006F8F00BF00BFFEE75020009000985028C2
:102DA00001D1012000E0002050B900BF502080F385
:102DB0001188BFF34F8FBFF36F8F00BF00BFFEE7D7
:102DC00000BF2C464CB1012084F846004B463A46E1
:102DD000314640460094FFF75DF82046BDE8F88391
:102DE00070B505460E462C4654B900BF502080F3FE
:102DF0001188BFF34F8FBFF36F8F00BF00BFFEE797
:102E0000FFF79AFCD4E90F12206801FB0200A060D2
:102E10000020A06320686060E06B401E226C216887
:102E200000FB0211E160FF2084F8440084F84500B3
:102E30009EB9206908B9012000E00020A8B904F17A
:102E4000100000F0FFFB80B14FF08050094908608E
:102E5000BFF34F8FBFF36F8F07E004F11000FFF750
:102E600035FC04F12400FFF731FCFFF78FFC012053
:102E700070BD000004ED00E02DE9FF4383B006467D
:102E800088461D464FF00009344654B900BF502013
:102E900080F31188BFF34F8FBFF36F8F00BF00BF68
:102EA000FEE7B8F1000F01D1206C08B9012000E065
:102EB000002050B900BF502080F31188BFF34F8F1E
:102EC000BFF36F8F00BF00BFFEE7022D02D1E06BA2
:102ED000012801D1012000E0002050B900BF50209E
:102EE00080F31188BFF34F8FBFF36F8F00BF00BF18
:102EF000FEE700F09DFA08B9059808B9012000E046
:102F0000002050B900BF502080F31188BFF34F8FCD
:102F1000BFF36F8F00BF00BFFEE700BFFFF70CFCE1
:102F2000A06BE16B884201D3022D28D12A4641468D
:102F30002046FEF7E2FE0746606A08B9012000E07D
:102F4000002068B904F1240000F07CFB88B14FF048
:102F5000805032490860BFF34F8FBFF36F8F08E096
:102F60003FB14FF080502D490860BFF34F8FBFF342
:102F70006F8FFFF70BFC012007B0BDE8F0830598C9
:102F800018B9FFF703FC0020F6E7B9F1000F04D1F0
:102F900001A8FFF725FD4FF00109FFF7F7FBFFF749
:102FA000C9FDFFF7C9FB94F94400401C10B900208B
:102FB00084F8440094F94500401C10B9002084F8BE
:102FC0004500FFF7E3FB05A901A800F05BF9F0B9A4
:102FD0002046FFF774F8A0B104F110000599FFF73F
:102FE00011FD2046FFF74FFA00F078FB002895D13D
:102FF0004FF0805009490860BFF34F8FBFF36F8FC8
:103000008CE72046FFF73FFA00F068FB86E7204692
:10301000FFF739FA00F062FB0020ADE704ED00E0B5
:103020002DE9F84F07468A4690461E463C4654B95D
:1030300000BF502080F31188BFF34F8FBFF36F8F15
:1030400000BF00BFFEE7BAF1000F01D1206C08B944
:10305000012000E0002050B900BF502080F311880B
:10306000BFF34F8FBFF36F8F00BF00BFFEE7022E8D
:1030700002D1E06B012801D1012000E0002050B90D
:1030800000BF502080F31188BFF34F8FBFF36F8FC5
:1030900000BF00BFFEE7FFF7FDFB00BF5021EFF3CD
:1030A000118081F31188BFF34F8FBFF36F8F00BF83
:1030B0000546A06BE16B884201D3022E25D194F91D
:1030C00045B0A06B0090324651462046FEF715FEF3
:1030D0000BF1010088B9606A08B9012000E0002006
:1030E00050B904F1240000F0ADFA28B1B8F1000F96
:1030F00002D00120C8F8000004E00BF1010040B24A
:1031000084F845004FF0010901E04FF0000900BFCD
:1031100085F3118800BF4846BDE8F88F2DE9F741D7
:1031200083B005460E464FF000082C4654B900BF48
:10313000502080F31188BFF34F8FBFF36F8F00BF14
:1031400000BFFEE70EB9206C08B9012000E00020A6
:1031500050B900BF502080F31188BFF34F8FBFF3E9
:103160006F8F00BF00BFFEE700F062F908B9059855
:1031700008B9012000E0002050B900BF502080F3C2
:103180001188BFF34F8FBFF36F8F00BF00BFFEE703
:1031900000BFFFF7D1FAA76BF7B131462046FEF723
:1031A00097FD781EA063206908B9012000E0002087
:1031B00060B904F1100000F045FA38B14FF08050CA
:1031C0002F490860BFF34F8FBFF36F8FFFF7DEFA11
:1031D000012006B0BDE8F081059818B9FFF7D6FACE
:1031E0000020F6E7B8F1000F04D101A8FFF7F8FBC3
:1031F0004FF00108FFF7CAFAFFF79CFCFFF79CFAB3
:1032000094F94400401C10B9002084F8440094F95B
:103210004500401C10B9002084F84500FFF7B6FABD
:1032200005A901A800F02EF8F0B92046FEF73AFFF4
:10323000A0B104F124000599FFF7E4FB2046FFF755
:1032400022F900F04BFA0028A3D14FF080500C492E
:103250000860BFF34F8FBFF36F8F9AE72046FFF7E9
:1032600012F900F03BFA94E72046FFF70CF900F062
:1032700035FA2046FEF716FF00288AD00020A8E77E
:1032800004ED00E070B505460C4655B900BF50206E
:1032900080F31188BFF34F8FBFF36F8F00BF00BF64
:1032A000FEE754B900BF502080F31188BFF34F8F61
:1032B000BFF36F8F00BF00BFFEE7FFF73DFA124874
:1032C00002686868131A2068401C08B9002617E0D5
:1032D0000E4928680968884204D06868904201D87D
:1032E00001260DE02068984207D92068C01A2060A6
:1032F0002846FFF775FB002602E00020206001262B
:10330000FFF744FA304670BD24000020380000204A
:103310002DE9FF4F85B0804689461746DDE912AB9F
:10332000B800FFF7EFF8064656B15C20FFF7EAF861
:1033300004460CB1266304E03046FFF745FA00E08E
:1033400000248CB1002084F85900CDE900ABCDE910
:1033500002403A4649464046089BFEF7B0FD2046EB
:10336000FEF7FCFB012501E04FF0FF35284609B0D0
:10337000BDE8F08F2DE9F04F85B0074688469146AD
:103380009A46DDE90EB6109C0EB1012000E0002047
:1033900050B900BF502080F31188BFF34F8FBFF3A7
:1033A0006F8F00BF00BFFEE70CB1012000E00020DE
:1033B00050B900BF502080F31188BFF34F8FBFF387
:1033C0006F8F00BF00BFFEE75C20039003985C286E
:1033D00001D1012000E0002050B900BF502080F34F
:1033E0001188BFF34F8FBFF36F8F00BF00BFFEE7A1
:1033F00000BFB4B1AEB125462C462E63022085F83D
:103400005900002004A953464A46CDE900B1CDE950
:10341000025041463846FEF752FD2846FEF79EFB15
:1034200001E000200490049805B0BDE8F08F000092
:103430000549096809B9012005E00449096809B985
:10344000022000E0002070472C00002048000020EF
:103450000149086870470000240000202DE9F04170
:103460004FF000084348006800287BD142480068BC
:10347000451C4148056015BB40480068006808B914
:10348000012000E0002050B900BF502080F31188D7
:10349000BFF34F8FBFF36F8F00BF00BFFEE737480A
:1034A000076837480068354908603548076035487F
:1034B0000068401C33490860FEF736FF00BF324801
:1034C000006885423BD300BF2C480068006808B9FB
:1034D000012000E0002020B14FF0FF302A490860B1
:1034E0002CE026480068C068C4686668B54202D20D
:1034F0002548066022E0201DFFF7BCF8A06A18B13D
:1035000004F11800FFF7B6F82049E06A096888421C
:1035100002D91E49E06A0860E16A01EB81011C4A98
:1035200002EB8100211DFFF7FBF81A49E06A0968E8
:10353000C96A8842C8D34FF00108C5E700BF1548E3
:103540000068C06A00EB8000114951F82000012892
:1035500001D94FF001081048006808B14FF0010888
:1035600005E0FFE70D480068401C0C490860404634
:10357000BDE8F08148000020240000201400002055
:103580001800002038000020400000202800002003
:10359000DC0000201000002034000020300000205B
:1035A00070B505462C460026002D43D02248006801
:1035B000844201D1012000E0002050B900BF50201A
:1035C00080F31188BFF34F8FBFF36F8F00BF00BF31
:1035D000FEE7206D50B900BF502080F31188BFF383
:1035E0004F8FBFF36F8F00BF00BFFEE7206D401EFF
:1035F0002065E16CE06A88421CD0206DD0B9201DA6
:10360000FFF738F8E06CE062E06AC0F13800A061D2
:103610000A49E06A0968884202D90849E06A0860F4
:10362000E16A01EB8101064A02EB8100211DFFF7EF
:1036300077F80126304670BD1000002028000020D9
:10364000DC00002070B50646F068C46854B900BFBD
:10365000502080F31188BFF34F8FBFF36F8F00BFEF
:1036600000BFFEE704F11800FFF704F815480068F2
:10367000A0B9201DFEF7FEFF1349E06A09688842E1
:1036800002D91149E06A0860E16A01EB81010F4A41
:1036900002EB8100211DFFF743F804E004F118015B
:1036A0000B48FFF73DF80B49E06A0968C96A884290
:1036B00004D9012501200849086000E000252846BA
:1036C00070BD00004800002028000020DC00002021
:1036D00064050020100000203400002070B5002494
:1036E00000263648006850B900BF502080F311888A
:1036F000BFF34F8FBFF36F8F00BF00BFFEE7FFF731
:103700001BF82E480068401E2C49086008460068D7
:1037100000284ED12A48006800284AD023E02948D2
:10372000C068C46804F11800FEF7A4FF201DFEF76E
:10373000A1FF2549E06A0968884202D92249E06A66
:103740000860E16A01EB8101204A02EB8100211D42
:10375000FEF7E6FF1E49E06A0968C96A884202D39B
:1037600001201C4908601748006808B9012000E0E2
:1037700000200028D3D00CB1FEF7D6FD164805680E
:1037800065B100BFFFF76AFE10B101201149086062
:103790006D1E002DF6D100200F4908600D4800680D
:1037A00038B1012630070D490860BFF34F8FBFF3D2
:1037B0006F8FFEF7EBFF304670BD00004800002021
:1037C000200000206405002028000020DC000020EC
:1037D00010000020340000203000002004ED00E044
:1037E00010B586B00024FEF715FA16480068D0B16F
:1037F00000200590049003AA04A905A8FEF75AFF2B
:103800000222DDE904100023CDE9002102900EA17F
:103810000F48039AFFF7AEFD0E490860084600689E
:1038200000B1012400BF54B900BF502080F31188BB
:10383000BFF34F8FBFF36F8F00BF00BFFEE720467F
:1038400006B010BD54000020546D72205376630002
:103850006D240008580000202DE9FF4704460D465E
:1038600016461F46DDF830804FF0000954B900BFFE
:10387000502080F31188BFF34F8FBFF36F8F00BFCD
:1038800000BFFEE71448006810B30095019602944B
:10389000062D15DAFFF7CCFD022808D10023424699
:1038A00069460D480068FFF7E7FA814610E00023FB
:1038B0001A46694608480068FFF7DEFA814607E0C5
:1038C00000233A46694604480068FFF7A9FB814691
:1038D000484604B0BDE8F087540000200000000016
:1038E00000000000010203040607080900000000B0
:1038F0000102030402030405060708090A0B0C0D64
:103900000E0F1010010200006839000800000000CE
:1039100000000000000000000000000000020000A5
:1039200018000000000000000000000070390008CE
:103930000000000000000000000000000000000087
:10394000000200000800000000000000000000006D
:1039500000080140020000000008014004000000CF
:1039600000080140080000004C45445461736B009E
:1039700053657269616C5461736B00009C39000877
:10398000000000209C000000CE170008383A000814
:103990009C000020641D0000DE17000800127A0061
:1039A0000000000010000000010000000000000006
:1039B0000000000000000000000000000000000007
:1039C00000000000000000000000000000000000F7
:1039D00000000000000000000000000000000000E7
:1039E00000000000000000000000000000000000D7
:1039F00000000000000000000000000000000000C7
:103A000000000000000000000000000000000000B6
:103A100000000000000000000000000000000000A6
:103A2000AAAAAAAA000000000000000000000000EE
:083A300000000000000000008E
:04000005080000ED02
:00000001FF
